:030000000209658D
:0C096500787FE4F6D8FD75811D0209AC16
:080BC900021C0000021A0000EA
:100B1100C2807F647E00120AABD2807F0A7E0012FF
:100B21000AABE4F511AF11120B417F3F120B717F3C
:0F0B3100C0120B710511E511C3940440E87F0059
:010B40002292
:100B71008F19120BBEEF549070F8C285C286851989
:080B8100A0D284C2847F00228F
:100B89008F17120BBEEF549070F8D285C286851765
:080B9900A0D284C2847F002277
:0A0BB300D285D286D284AFA0C2849E
:010BBD002215
:0A0BBE00C285D286D284AFA0C284A3
:010BC800220A
:100B4100EFD3940340037F0122EF14600E1460136E
:100B510014601424037016C2818002D281C283C240
:100B610082800AC2818002D281D283C2827F002226
:080A52008C178D18AB07AA06F2
:100A5A00E4FF8A1C8B1D85171A85181BC3E517949A
:100A6A0001501CC3EB9440EA94005013E518AE17EA
:100A7A007806CEC313CE13D8F9FF120B4180037F39
:100A8A000122EBAE027803CEC313CE13D8F944B8D1
:100A9A00FF120B71E518543F4440FF120B717F009F
:010AAA002229
:060ADF008E118F128B1333
:100AE500120A52120BB3120BB3E5125407FE74012E
:100AF500A806088002C333D8FCF45FFFE513A806F7
:0C0B0500088002C333D8FC4FFF020B89AC
:1009F100E4F515F516AF16120B41E4F513F514E500
:100A01001424B8FF120B717F40120B71E4F511F53C
:100A110012E4FF120B890512E51270020511C3944D
:100A210040E511940040EA0514E51470020513C372
:100A31009408E513940040C70516E51670020515E4
:100A4100C39404E515940040ACE4FDFCFFFE020AEA
:010A51005252
:1000030000607F4ADA6A6A58005E64A49FA4648C25
:1000130000607F4ADA6A6A58005E64A49FA4648C15
:1000230000607F4ADA6A6A58005E64A49FA4648C05
:1000330000607F4ADA6A6A58005E64A49FA4648CF5
:1000430000607F4ADA6A6A58005E64A49FA4648CE5
:1000530000607F4ADA6A6A58005E64A49FA4648CD5
:1000630000607F4ADA6A6A58005E64A49FA4648CC5
:1000730000607F4ADA6A6A58005E64A49FA4648CB5
:1000830000607F4ADA6A6A58005E64A49FA4648CA5
:1000930000607F4ADA6A6A58005E64A49FA4648C95
:1000A30000607F4ADA6A6A58005E64A49FA4648C85
:1000B30000607F4ADA6A6A58005E64A49FA4648C75
:1000C30000607F4ADA6A6A58005E64A49FA4648C65
:1000D30000607F4ADA6A6A58005E64A49FA4648C55
:1000E30000607F4ADA6A6A58005E64A49FA4648C45
:1000F30000607F4ADA6A6A58005E64A49FA4648C35
:1001030000607F4ADA6A6A58005E64A49FA4648C24
:1001130000607F4ADA6A6A58005E64A49FA4648C14
:1001230000607F4ADA6A6A58005E64A49FA4648C04
:1001330000607F4ADA6A6A58005E64A49FA4648CF4
:1001430000607F4ADA6A6A58005E64A49FA4648CE4
:1001530000607F4ADA6A6A58005E64A49FA4648CD4
:1001630000607F4ADA6A6A58005E64A49FA4648CC4
:1001730000607F4ADA6A6A58005E64A49FA4648CB4
:1001830000607F4ADA6A6A58005E64A49FA4648CA4
:1001930000607F4ADA6A6A58005E64A49FA4648C94
:1001A30000607F4ADA6A6A58005E64A49FA4648C84
:1001B30000607F4ADA6A6A58005E64A49FA4648C74
:1001C30000607F4ADA6A6A58005E64A49FA4648C64
:1001D30000607F4ADA6A6A58005E64A49FA4648C54
:1001E30000607F4ADA6A6A58005E64A49FA4648C44
:1001F30000607F4ADA6A6A58005E64A49FA4648C34
:1002030000607F4ADA6A6A58005E64A49FA4648C23
:1002130000607F4ADA6A6A58005E64A49FA4648C13
:1002230000607F4ADA6A6A58005E64A49FA4648C03
:1002330000607F4ADA6A6A58005E64A49FA4648CF3
:1002430000607F4ADA6A6A58005E64A49FA4648CE3
:1002530000607F4ADA6A6A58005E64A49FA4648CD3
:1002630000607F4ADA6A6A58005E64A49FA4648CC3
:1002730000607F4ADA6A6A58005E64A49FA4648CB3
:1002830000607F4ADA6A6A58005E64A49FA4648CA3
:1002930000607F4ADA6A6A58005E64A49FA4648C93
:1002A30000607F4ADA6A6A58005E64A49FA4648C83
:1002B30000607F4ADA6A6A58005E64A49FA4648C73
:1002C30000607F4ADA6A6A58005E64A49FA4648C63
:1002D30000607F4ADA6A6A58005E64A49FA4648C53
:1002E30000607F4ADA6A6A58005E64A49FA4648C43
:1002F30000607F4ADA6A6A58005E64A49FA4648C33
:1003030000607F4ADA6A6A58005E64A49FA4648C22
:1003130000000000000000000000000000000000DA
:1003230000000000000000000000000000000000CA
:100333000000000000000000000000180808F80892
:10034300081800E01008080810E00008F80808087A
:1003530008F000F80800F80008F8000000C038E0D2
:100363000000000838C800C838080000000000007A
:1003730000000008F808000000000008F8F800F882
:10038300F8080000E010888818000000708808084A
:1003930088700000E010080810E00000E010080872
:1003A30010E000000000000000000008F808000052
:1003B300000000C03008080808380008F8080808DA
:1003C30010E000000000000000000008F8F800F84A
:1003D300F80800000080808080000000000080801A
:1003E30088F8008080000000808000000808F80082
:1003F30000000000008080808000000000000000FA
:1004030000000000000000000000000000000000E9
:1004130000000000000000000000000000000000D9
:1004230000000000000000000000000000000000C9
:1004330000000000000000000000000000203F203A
:100443000000000F10202020100F00203F21010189
:10045300010000033C0700073C0300203C23020289
:100463002738200000203F2000000000000000008B
:10047300000000203F202020203000203F003F00CC
:100483003F2000000F112020110E00001C2221210B
:10049300221C00000F102020100F00000F1020203E
:1004A300100F000000000000000000203F2020206B
:1004B3002030000718202020100800203F20202093
:1004C300100F000000000000000000203F003F006C
:1004D3003F2000001F202020201F00000E1120209D
:1004E300103F20001F202020103F200020203F200D
:1004F300200000001F22222222130000000000001F
:1005030000000000000000000000000000000000E8
:100513000000F00F08100420042004200810F00F3E
:100523000000000008000800FC3F0000000000007D
:10053300000030300828042404220421882070207D
:100543000000100808108420842084204811300EF5
:10055300000000068005600418040404FC3F000446
:100563000000FC0984104420442044208410040F1C
:100573000000F00F88104420442044208810100FFE
:10058300000004000400043C8403640014000C0015
:100593000000300E48118420842084204811300E3E
:1005A3000000F00808110422042204220811F00FAD
:1005B3000000C007300C10081008300CE0030000E6
:1005C3000000000020081008F00F000800080000D9
:1005D30000000008200C100A100A1009E0080000AF
:1005E30000002004900890089008600700000000B5
:1005F30000020003C00260023002F00F000200009C
:1006030000000000F0049008900890081007000014
:100613000000C007200D9008900890080007000014
:100623000000100010081007D00170001000000037
:100633000000600690099008900890096006000089
:100643000000E0001009100910093005E003000064
:100653000004001F8011C010C018800F8007000025
:1006630000000000C0004000E01FC00100000000C7
:1006730000100018C01C40144014C012C013000026
:1006830000004060602020222013E01E00000000D4
:10069300000C001FC01160100030003E001200006B
:1006A30000200027C027402640264034401C00007D
:1006B3000000800FC0186016301B100F10020000DE
:1006C300400060606032601A400EC0030002000008
:1006D3004000E018301F3013981D581838000000F0
:1006E30000000007802740264022403F8001000091
:1006F3000000F00F38180810042004200810781E9A
:1007030000000000200020001000F81FFC1F000064
:1007130000001018181C081604120C118811F81088
:10072300000010181810083084208C20C811781F7E
:10073300000400068005C00420041804FC1F000404
:100743000000C008F810883048204820C8108819D5
:100753000000F00F9818881044204420881098193E
:10076300000008000800081C0807C80168001800FA
:100773000000301E7811883184208420881178137A
:100783000000F00818110822042204220811B81CE2
:10079300E4F510D282D283D281D280D285D28475FD
:1007A300A0FF120B111209F1E4F50CF50DE4F50AA3
:1007B300F50BAE0CAF0D7C007D03120BA1C006C080
:1007C30007E50BAE0A7802C333CE33CED8F9FDACBE
:1007D30006E50D5401FBD007D006120ADF050BE531
:1007E3000B7002050AC39420E50A940040C4050D6A
:1007F300E50D7002050CC39410E50C940040AE7F28
:10080300107E27120AABE4F50CF50DAF0D120B4168
:10081300E4F50AF50BAF0D120B41E50B25E024B807
:10082300FF120B717F40120B71E4F508F509E50D1A
:10083300AE0C7807C333CE33CED8F9FDAC06E50949
:1008430025E0FFE50833FEEF2DF50FEE3CF50EFE38
:100853007413250FF58274053EF583E493FF120BA1
:10086300890509E50970020508C39440E508940069
:1008730040BCE50B25E024B9FF120B717F40120B3E
:1008830071E4F508F509E50DAE0C7807C333CE33F3
:10089300CED8F9FDAC06E50925E0FFE50833FEEF08
:1008A3002DFFEE3CCF2401F50FE43FF50EFE74134C
:1008B300250FF58274053EF583E493FF120B89053A
:1008C30009E50970020508C39440E508940040B6A1
:1008D300050BE50B7002050AC39404E50A94005066
:1008E30003020818050DE50D7002050CC39404E519
:1008F3000C9400500302080E7F107E27120AABE40B
:10090300F508F509C283C2817F647E00120AABD267
:1009130081D2837F647E00120AABD3E5099440E55C
:1009230008940040067E007F008004AE08AF098E65
:10093300088F090509E50970020508E4F50CF50DB2
:10094300C3E50D9404E50C940050B9AF0D120B41AF
:10095300E50944C0FF120B71050DE50D70E2050CAE
:0209630080DE34
:100AAB00E4F514F515C3E5159FE5149E5025E4F503
:100ABB0012F5138512168513170513E5137002052E
:100ACB0012E513646D451270EA0515E51570D60530
:030ADB001480D2B2
:010ADE0022F5
:10097100020793E493A3F8E493A34003F68001F202
:1009810008DFF48029E493A3F85407240CC8C33387
:10099100C4540F4420C8834004F456800146F6DF56
:1009A100E4800B0102040810204080900BC9E47E12
:1009B100019360BCA3FF543F30E509541FFEE4934B
:1009C100A360010ECF54C025E060A840B8E493A312
:1009D100FAE493A3F8E493A3C8C582C8CAC583CA3D
:1009E100F0A3C8C582C8CAC583CADFE9DEE780BEF5
:010BD1000023
:100BA100EF8DF0A4A8F0CF8CF0A428CE8DF0A42E68
:020BB100FE2222
:00000001FF
