:0300000002096C86
:0C096C00787FE4F6D8FD75811D0209B308
:080BFB00021C0000021A0000B8
:100B6D00C2807F647E00120B06D2807F0A7E001247
:100B7D000B06E4F511AF11120B3A7F3F120B9D7F5F
:0F0B8D00C0120B9D0511E511C3940440E87F00D1
:010B9C002236
:100B9D008F19120BEBEF549070F8C285C286851930
:0C0BAD00A0D28400C2840000007F00225F
:100BB9008F17120BEBEF549070F8D285C286851708
:0C0BC900A0D28400C2840000007F002243
:100BD500120BEBEF549070F8D285D286D284AFA079
:050BE500C284000000C5
:010BEA0022E8
:0F0BEB00E4F5A00000C285D286D284AFA0C284F8
:010BFA0022D8
:100B3A00EFD3940340037F0122EF14600E14601375
:100B4A0014601424037016C2818002D281C283C247
:100B5A0082800AC2818002D281D283C282000000CE
:030B6A007F0022E7
:080A5C00AD14AC13AF12AE1192
:080A64008C178D18AB07AA06E0
:100A6C00E4FF8A1C8B1D85171A85181BC3E5179488
:100A7C0001501CC3EB9440EA94005013E518AE17D8
:100A8C007806CEC313CE13D8F9FF120B3A80037F2E
:100A9C000122EBAE027803CEC313CE13D8F944B8BF
:100AAC00FF120B9DE518543F4440FF120B9D7F0035
:010ABC002217
:0A0ABD008E118F128C138D148B150F
:100AC7007F3F120B9D120A5C120BD58F16120BD5A6
:100AD7008F16E5125407FF7401A807088002C33375
:100AE700D8FCF45516FEE515A807088002C333D8CD
:0E0AF700FC4EF516120A5CAF16120BB97F000A
:010B050022CD
:1009F800E4F515F516AF16120B3AE4F513F514E500
:100A08001444B8FF120B9D7F40120B9DE4F511F5BD
:100A180012E4FF120BB90512E51270020511C39416
:100A280040E511940040EA0514E51470020513C36B
:100A38009408E513940040C70516E51670020515DD
:100A4800C39404E515940040ACE4FDFCFFFE120AD3
:030A5800647F00B8
:010A5B002278
:1000030000607F4ADA6A6A58005E64A49FA4648C25
:1000130000607F4ADA6A6A58005E64A49FA4648C15
:1000230000607F4ADA6A6A58005E64A49FA4648C05
:1000330000607F4ADA6A6A58005E64A49FA4648CF5
:1000430000607F4ADA6A6A58005E64A49FA4648CE5
:1000530000607F4ADA6A6A58005E64A49FA4648CD5
:1000630000607F4ADA6A6A58005E64A49FA4648CC5
:1000730000607F4ADA6A6A58005E64A49FA4648CB5
:1000830000607F4ADA6A6A58005E64A49FA4648CA5
:1000930000607F4ADA6A6A58005E64A49FA4648C95
:1000A30000607F4ADA6A6A58005E64A49FA4648C85
:1000B30000607F4ADA6A6A58005E64A49FA4648C75
:1000C30000607F4ADA6A6A58005E64A49FA4648C65
:1000D30000607F4ADA6A6A58005E64A49FA4648C55
:1000E30000607F4ADA6A6A58005E64A49FA4648C45
:1000F30000607F4ADA6A6A58005E64A49FA4648C35
:1001030000607F4ADA6A6A58005E64A49FA4648C24
:1001130000607F4ADA6A6A58005E64A49FA4648C14
:1001230000607F4ADA6A6A58005E64A49FA4648C04
:1001330000607F4ADA6A6A58005E64A49FA4648CF4
:1001430000607F4ADA6A6A58005E64A49FA4648CE4
:1001530000607F4ADA6A6A58005E64A49FA4648CD4
:1001630000607F4ADA6A6A58005E64A49FA4648CC4
:1001730000607F4ADA6A6A58005E64A49FA4648CB4
:1001830000607F4ADA6A6A58005E64A49FA4648CA4
:1001930000607F4ADA6A6A58005E64A49FA4648C94
:1001A30000607F4ADA6A6A58005E64A49FA4648C84
:1001B30000607F4ADA6A6A58005E64A49FA4648C74
:1001C30000607F4ADA6A6A58005E64A49FA4648C64
:1001D30000607F4ADA6A6A58005E64A49FA4648C54
:1001E30000607F4ADA6A6A58005E64A49FA4648C44
:1001F30000607F4ADA6A6A58005E64A49FA4648C34
:1002030000607F4ADA6A6A58005E64A49FA4648C23
:1002130000607F4ADA6A6A58005E64A49FA4648C13
:1002230000607F4ADA6A6A58005E64A49FA4648C03
:1002330000607F4ADA6A6A58005E64A49FA4648CF3
:1002430000607F4ADA6A6A58005E64A49FA4648CE3
:1002530000607F4ADA6A6A58005E64A49FA4648CD3
:1002630000607F4ADA6A6A58005E64A49FA4648CC3
:1002730000607F4ADA6A6A58005E64A49FA4648CB3
:1002830000607F4ADA6A6A58005E64A49FA4648CA3
:1002930000607F4ADA6A6A58005E64A49FA4648C93
:1002A30000607F4ADA6A6A58005E64A49FA4648C83
:1002B30000607F4ADA6A6A58005E64A49FA4648C73
:1002C30000607F4ADA6A6A58005E64A49FA4648C63
:1002D30000607F4ADA6A6A58005E64A49FA4648C53
:1002E30000607F4ADA6A6A58005E64A49FA4648C43
:1002F30000607F4ADA6A6A58005E64A49FA4648C33
:1003030000607F4ADA6A6A58005E64A49FA4648C22
:1003130000000000000000000000000000000000DA
:1003230000000000000000000000000000000000CA
:100333000000000000000000000000180808F80892
:10034300081800E01008080810E00008F80808087A
:1003530008F000F80800F80008F8000000C038E0D2
:100363000000000838C800C838080000000000007A
:1003730000000008F808000000000008F8F800F882
:10038300F8080000E010888818000000708808084A
:1003930088700000E010080810E00000E010080872
:1003A30010E000000000000000000008F808000052
:1003B300000000C03008080808380008F8080808DA
:1003C30010E000000000000000000008F8F800F84A
:1003D300F80800000080808080000000000080801A
:1003E30088F8008080000000808000000808F80082
:1003F30000000000008080808000000000000000FA
:1004030000000000000000000000000000000000E9
:1004130000000000000000000000000000000000D9
:1004230000000000000000000000000000000000C9
:1004330000000000000000000000000000203F203A
:100443000000000F10202020100F00203F21010189
:10045300010000033C0700073C0300203C23020289
:100463002738200000203F2000000000000000008B
:10047300000000203F202020203000203F003F00CC
:100483003F2000000F112020110E00001C2221210B
:10049300221C00000F102020100F00000F1020203E
:1004A300100F000000000000000000203F2020206B
:1004B3002030000718202020100800203F20202093
:1004C300100F000000000000000000203F003F006C
:1004D3003F2000001F202020201F00000E1120209D
:1004E300103F20001F202020103F200020203F200D
:1004F300200000001F22222222130000000000001F
:1005030000000000000000000000000000000000E8
:100513000000F00F08100420042004200810F00F3E
:100523000000000008000800FC3F0000000000007D
:10053300000030300828042404220421882070207D
:100543000000100808108420842084204811300EF5
:10055300000000068005600418040404FC3F000446
:100563000000FC0984104420442044208410040F1C
:100573000000F00F88104420442044208810100FFE
:10058300000004000400043C8403640014000C0015
:100593000000300E48118420842084204811300E3E
:1005A3000000F00808110422042204220811F00FAD
:1005B3000000C007300C10081008300CE0030000E6
:1005C3000000000020081008F00F000800080000D9
:1005D30000000008200C100A100A1009E0080000AF
:1005E30000002004900890089008600700000000B5
:1005F30000020003C00260023002F00F000200009C
:1006030000000000F0049008900890081007000014
:100613000000C007200D9008900890080007000014
:100623000000100010081007D00170001000000037
:100633000000600690099008900890096006000089
:100643000000E0001009100910093005E003000064
:100653000004001F8011C010C018800F8007000025
:1006630000000000C0004000E01FC00100000000C7
:1006730000100018C01C40144014C012C013000026
:1006830000004060602020222013E01E00000000D4
:10069300000C001FC01160100030003E001200006B
:1006A30000200027C027402640264034401C00007D
:1006B3000000800FC0186016301B100F10020000DE
:1006C300400060606032601A400EC0030002000008
:1006D3004000E018301F3013981D581838000000F0
:1006E30000000007802740264022403F8001000091
:1006F3000000F00F38180810042004200810781E9A
:1007030000000000200020001000F81FFC1F000064
:1007130000001018181C081604120C118811F81088
:10072300000010181810083084208C20C811781F7E
:10073300000400068005C00420041804FC1F000404
:100743000000C008F810883048204820C8108819D5
:100753000000F00F9818881044204420881098193E
:10076300000008000800081C0807C80168001800FA
:100773000000301E7811883184208420881178137A
:100783000000F00818110822042204220811B81CE2
:10079300E4F510D282D283D281D280D285D28475FD
:1007A300A0FF120B6D1209F87FD07E07120B06E42F
:1007B300F50CF50DE4F50AF50BE50DAE0C7802C367
:1007C30033CE33CED8F9FFC006C007E50BAE0A78A7
:1007D30002C333CE33CED8F9FDAC06D007D0067BA7
:1007E30001120ABD050BE50B7002050AC3940CE563
:1007F3000A940040C4050DE50D7002050CC3941066
:10080300E50C940040AE7F107E27120B06E4F50C36
:10081300F50DAF0D120B3AE4F50AF50BAF0D120B04
:100823003AE50B25E024B8FF120B9D7F40120B9D88
:10083300E4F508F509E50DAE0C7807C333CE33CEE6
:10084300D8F9FDAC06E50925E0FFE50833FEEF2DF9
:10085300F50FEE3CF50EFE7413250FF58274053E7D
:10086300F583E493FF120BB90509E5097002050846
:10087300C39440E508940040BCE50B25E024B9FF90
:10088300120B9D7F40120B9DE4F508F509E50DAEB3
:100893000C7807C333CE33CED8F9FDAC06E5092572
:1008A300E0FFE50833FEEF2DFFEE3CCF2401F50F0B
:1008B300E43FF50EFE7413250FF58274053EF583B0
:1008C300E493FF120BB90509E50970020508C39407
:1008D30040E508940040B6050BE50B7002050AC31A
:1008E3009404E50A9400500302081F050DE50D70FA
:1008F30002050CC39404E50C940050030208157F11
:10090300107E27120B06E4F508F509C283C2817F26
:10091300647E00120B06D281D2837F647E00120BA9
:1009230006D3E5099440E508940040067E007F0065
:100933008004AE08AF098E088F090509E509700226
:100943000508E4F50CF50DC3E50D9404E50C9400DE
:1009530050B9AF0D120B3AE50944C0FF120B9D05C8
:090963000DE50D70E2050C80DECB
:100B0600E4F514F515C3E5159FE5149E5025E4F5A7
:100B160012F5138512168513170513E513700205D2
:100B260012E513646D451270EA0515E51570D605D4
:030B36001480D256
:010B39002299
:10097800020793E493A3F8E493A34003F68001F2FB
:1009880008DFF48029E493A3F85407240CC8C33380
:10099800C4540F4420C8834004F456800146F6DF4F
:1009A800E4800B0102040810204080900BFBE47ED9
:1009B800019360BCA3FF543F30E509541FFEE49344
:1009C800A360010ECF54C025E060A840B8E493A30B
:1009D800FAE493A3F8E493A3C8C582C8CAC583CA36
:1009E800F0A3C8C582C8CAC583CADFE9DEE780BEEE
:010C030000F0
:00000001FF
